{
  "address": "0xe7f1725E7734CE288F8367e1Bb143E90bb3F0512",
  "abi": [
    {
      "inputs": [
        {
          "internalType": "address",
          "name": "priceFeedAddress",
          "type": "address"
        }
      ],
      "stateMutability": "nonpayable",
      "type": "constructor"
    },
    {
      "inputs": [],
      "name": "FundMe__NotOwner",
      "type": "error"
    },
    {
      "anonymous": false,
      "inputs": [
        {
          "indexed": false,
          "internalType": "address",
          "name": "funderAddress",
          "type": "address"
        },
        {
          "indexed": false,
          "internalType": "uint256",
          "name": "funderAmount",
          "type": "uint256"
        }
      ],
      "name": "FundingSuccessful",
      "type": "event"
    },
    {
      "anonymous": false,
      "inputs": [
        {
          "indexed": false,
          "internalType": "address",
          "name": "withdrawAddress",
          "type": "address"
        },
        {
          "indexed": false,
          "internalType": "uint256",
          "name": "withdrawAmount",
          "type": "uint256"
        }
      ],
      "name": "WithdrawSuccessful",
      "type": "event"
    },
    {
      "stateMutability": "payable",
      "type": "fallback"
    },
    {
      "inputs": [
        {
          "internalType": "string",
          "name": "timeStamp",
          "type": "string"
        }
      ],
      "name": "fund",
      "outputs": [],
      "stateMutability": "payable",
      "type": "function"
    },
    {
      "inputs": [],
      "name": "getAllFunders",
      "outputs": [
        {
          "components": [
            {
              "internalType": "address",
              "name": "funderAddress",
              "type": "address"
            },
            {
              "internalType": "uint256",
              "name": "amountFunded",
              "type": "uint256"
            },
            {
              "internalType": "string",
              "name": "timeStamp",
              "type": "string"
            }
          ],
          "internalType": "struct Funder[]",
          "name": "",
          "type": "tuple[]"
        }
      ],
      "stateMutability": "view",
      "type": "function"
    },
    {
      "inputs": [],
      "name": "getAllWithdraws",
      "outputs": [
        {
          "components": [
            {
              "internalType": "uint256",
              "name": "withdrawAmount",
              "type": "uint256"
            },
            {
              "internalType": "string",
              "name": "timeStamp",
              "type": "string"
            }
          ],
          "internalType": "struct Withdraw[]",
          "name": "",
          "type": "tuple[]"
        }
      ],
      "stateMutability": "view",
      "type": "function"
    },
    {
      "inputs": [
        {
          "internalType": "uint256",
          "name": "index",
          "type": "uint256"
        }
      ],
      "name": "getFunder",
      "outputs": [
        {
          "components": [
            {
              "internalType": "address",
              "name": "funderAddress",
              "type": "address"
            },
            {
              "internalType": "uint256",
              "name": "amountFunded",
              "type": "uint256"
            },
            {
              "internalType": "string",
              "name": "timeStamp",
              "type": "string"
            }
          ],
          "internalType": "struct Funder",
          "name": "",
          "type": "tuple"
        }
      ],
      "stateMutability": "view",
      "type": "function"
    },
    {
      "inputs": [],
      "name": "getOwner",
      "outputs": [
        {
          "internalType": "address",
          "name": "",
          "type": "address"
        }
      ],
      "stateMutability": "view",
      "type": "function"
    },
    {
      "inputs": [],
      "name": "getPriceFeed",
      "outputs": [
        {
          "internalType": "contract AggregatorV3Interface",
          "name": "",
          "type": "address"
        }
      ],
      "stateMutability": "view",
      "type": "function"
    },
    {
      "inputs": [],
      "name": "s_minUsd",
      "outputs": [
        {
          "internalType": "uint256",
          "name": "",
          "type": "uint256"
        }
      ],
      "stateMutability": "view",
      "type": "function"
    },
    {
      "inputs": [
        {
          "internalType": "uint256",
          "name": "_minUsd",
          "type": "uint256"
        }
      ],
      "name": "setMinUsd",
      "outputs": [],
      "stateMutability": "nonpayable",
      "type": "function"
    },
    {
      "inputs": [
        {
          "internalType": "string",
          "name": "timeStamp",
          "type": "string"
        }
      ],
      "name": "withdraw",
      "outputs": [],
      "stateMutability": "nonpayable",
      "type": "function"
    },
    {
      "stateMutability": "payable",
      "type": "receive"
    }
  ],
  "transactionHash": "0x6cddd9587558a728c1d1fe22250953123b132b57e0eab03a5ea7205a50d08169",
  "args": [
    "0x5FbDB2315678afecb367f032d93F642f64180aa3"
  ],
  "numDeployments": 1,
  "solcInputHash": "961cb09eb87b3c3a6252f871e87ab282",
  "bytecode": "0x60a06040526802b5e3af16b18800006000553480156200001e57600080fd5b5060405162001a0438038062001a0483398181016040528101906200004491906200012d565b3373ffffffffffffffffffffffffffffffffffffffff1660808173ffffffffffffffffffffffffffffffffffffffff1660601b8152505080600160006101000a81548173ffffffffffffffffffffffffffffffffffffffff021916908373ffffffffffffffffffffffffffffffffffffffff160217905550506200015f565b600080fd5b600073ffffffffffffffffffffffffffffffffffffffff82169050919050565b6000620000f582620000c8565b9050919050565b6200010781620000e8565b81146200011357600080fd5b50565b6000815190506200012781620000fc565b92915050565b600060208284031215620001465762000145620000c3565b5b6000620001568482850162000116565b91505092915050565b60805160601c61186a6200019a600039600081816104c90152818161055301528181610644015281816106800152610875015261186a6000f3fe60806040526004361061008a5760003560e01c806373451f651161005957806373451f651461016b578063893d20e8146101875780639e87a5cd146101b2578063a9026f09146101dd578063d7b4750c14610208576100a9565b8063120ec96c146100c357806331fb67c2146100ee578063457aa181146101175780636fbbb55d14610140576100a9565b366100a9576100a760405180602001604052806000815250610245565b005b6100c160405180602001604052806000815250610245565b005b3480156100cf57600080fd5b506100d86103cc565b6040516100e59190610de9565b60405180910390f35b3480156100fa57600080fd5b5061011560048036038101906101109190610f54565b6104c7565b005b34801561012357600080fd5b5061013e60048036038101906101399190610fc9565b61067e565b005b34801561014c57600080fd5b50610155610720565b6040516101629190611149565b60405180910390f35b61018560048036038101906101809190610f54565b610245565b005b34801561019357600080fd5b5061019c610871565b6040516101a9919061117a565b60405180910390f35b3480156101be57600080fd5b506101c7610899565b6040516101d491906111f4565b60405180910390f35b3480156101e957600080fd5b506101f26108c3565b6040516101ff919061121e565b60405180910390f35b34801561021457600080fd5b5061022f600480360381019061022a9190610fc9565b6108c9565b60405161023c9190611289565b60405180910390f35b61027c600160009054906101000a900473ffffffffffffffffffffffffffffffffffffffff166000546109f790919063ffffffff16565b3410156102be576040517f08c379a00000000000000000000000000000000000000000000000000000000081526004016102b590611308565b60405180910390fd5b600060405180606001604052803373ffffffffffffffffffffffffffffffffffffffff168152602001348152602001838152509050600281908060018154018082558091505060019003906000526020600020906003020160009091909190915060008201518160000160006101000a81548173ffffffffffffffffffffffffffffffffffffffff021916908373ffffffffffffffffffffffffffffffffffffffff16021790555060208201518160010155604082015181600201908051906020019061038c929190610b5e565b5050507fc1105fcb5c06a54874e4c68cc01b77145822863d3d7a05ebc76a65f91b27777233346040516103c0929190611328565b60405180910390a15050565b60606003805480602002602001604051908101604052809291908181526020016000905b828210156104be57838290600052602060002090600202016040518060400160405290816000820154815260200160018201805461042d90611380565b80601f016020809104026020016040519081016040528092919081815260200182805461045990611380565b80156104a65780601f1061047b576101008083540402835291602001916104a6565b820191906000526020600020905b81548152906001019060200180831161048957829003601f168201915b505050505081525050815260200190600101906103f0565b50505050905090565b7f000000000000000000000000000000000000000000000000000000000000000073ffffffffffffffffffffffffffffffffffffffff163373ffffffffffffffffffffffffffffffffffffffff161461054c576040517f579610db00000000000000000000000000000000000000000000000000000000815260040160405180910390fd5b60004790507f000000000000000000000000000000000000000000000000000000000000000073ffffffffffffffffffffffffffffffffffffffff166108fc829081150290604051600060405180830381858888f193505050501580156105b7573d6000803e3d6000fd5b506003604051806040016040528083815260200184815250908060018154018082558091505060019003906000526020600020906002020160009091909190915060008201518160000155602082015181600101908051906020019061061e929190610b5e565b5050507f84e742a3ea03623687a5febaa797636d728230721d4b3d1405d19fbbc16298d97f0000000000000000000000000000000000000000000000000000000000000000826040516106729291906113d3565b60405180910390a15050565b7f000000000000000000000000000000000000000000000000000000000000000073ffffffffffffffffffffffffffffffffffffffff163373ffffffffffffffffffffffffffffffffffffffff1614610703576040517f579610db00000000000000000000000000000000000000000000000000000000815260040160405180910390fd5b670de0b6b3a764000081610717919061142b565b60008190555050565b60606002805480602002602001604051908101604052809291908181526020016000905b8282101561086857838290600052602060002090600302016040518060600160405290816000820160009054906101000a900473ffffffffffffffffffffffffffffffffffffffff1673ffffffffffffffffffffffffffffffffffffffff1673ffffffffffffffffffffffffffffffffffffffff168152602001600182015481526020016002820180546107d790611380565b80601f016020809104026020016040519081016040528092919081815260200182805461080390611380565b80156108505780601f1061082557610100808354040283529160200191610850565b820191906000526020600020905b81548152906001019060200180831161083357829003601f168201915b50505050508152505081526020019060010190610744565b50505050905090565b60007f0000000000000000000000000000000000000000000000000000000000000000905090565b6000600160009054906101000a900473ffffffffffffffffffffffffffffffffffffffff16905090565b60005481565b6108d1610be4565b600282815481106108e5576108e4611485565b5b90600052602060002090600302016040518060600160405290816000820160009054906101000a900473ffffffffffffffffffffffffffffffffffffffff1673ffffffffffffffffffffffffffffffffffffffff1673ffffffffffffffffffffffffffffffffffffffff1681526020016001820154815260200160028201805461096e90611380565b80601f016020809104026020016040519081016040528092919081815260200182805461099a90611380565b80156109e75780601f106109bc576101008083540402835291602001916109e7565b820191906000526020600020905b8154815290600101906020018083116109ca57829003601f168201915b5050505050815250509050919050565b6000610a0282610a28565b670de0b6b3a764000084610a16919061142b565b610a2091906114e3565b905092915050565b6000808273ffffffffffffffffffffffffffffffffffffffff1663feaf968c6040518163ffffffff1660e01b815260040160a06040518083038186803b158015610a7157600080fd5b505afa158015610a85573d6000803e3d6000fd5b505050506040513d601f19601f82011682018060405250810190610aa991906115a1565b50505091505060008373ffffffffffffffffffffffffffffffffffffffff1663313ce5676040518163ffffffff1660e01b815260040160206040518083038186803b158015610af757600080fd5b505afa158015610b0b573d6000803e3d6000fd5b505050506040513d601f19601f82011682018060405250810190610b2f9190611655565b9050806012610b3e9190611682565b600a610b4a91906117e9565b82610b55919061142b565b92505050919050565b828054610b6a90611380565b90600052602060002090601f016020900481019282610b8c5760008555610bd3565b82601f10610ba557805160ff1916838001178555610bd3565b82800160010185558215610bd3579182015b82811115610bd2578251825591602001919060010190610bb7565b5b509050610be09190610c1b565b5090565b6040518060600160405280600073ffffffffffffffffffffffffffffffffffffffff16815260200160008152602001606081525090565b5b80821115610c34576000816000905550600101610c1c565b5090565b600081519050919050565b600082825260208201905092915050565b6000819050602082019050919050565b6000819050919050565b610c7781610c64565b82525050565b600081519050919050565b600082825260208201905092915050565b60005b83811015610cb7578082015181840152602081019050610c9c565b83811115610cc6576000848401525b50505050565b6000601f19601f8301169050919050565b6000610ce882610c7d565b610cf28185610c88565b9350610d02818560208601610c99565b610d0b81610ccc565b840191505092915050565b6000604083016000830151610d2e6000860182610c6e565b5060208301518482036020860152610d468282610cdd565b9150508091505092915050565b6000610d5f8383610d16565b905092915050565b6000602082019050919050565b6000610d7f82610c38565b610d898185610c43565b935083602082028501610d9b85610c54565b8060005b85811015610dd75784840389528151610db88582610d53565b9450610dc383610d67565b925060208a01995050600181019050610d9f565b50829750879550505050505092915050565b60006020820190508181036000830152610e038184610d74565b905092915050565b6000604051905090565b600080fd5b600080fd5b600080fd5b600080fd5b7f4e487b7100000000000000000000000000000000000000000000000000000000600052604160045260246000fd5b610e6182610ccc565b810181811067ffffffffffffffff82111715610e8057610e7f610e29565b5b80604052505050565b6000610e93610e0b565b9050610e9f8282610e58565b919050565b600067ffffffffffffffff821115610ebf57610ebe610e29565b5b610ec882610ccc565b9050602081019050919050565b82818337600083830152505050565b6000610ef7610ef284610ea4565b610e89565b905082815260208101848484011115610f1357610f12610e24565b5b610f1e848285610ed5565b509392505050565b600082601f830112610f3b57610f3a610e1f565b5b8135610f4b848260208601610ee4565b91505092915050565b600060208284031215610f6a57610f69610e15565b5b600082013567ffffffffffffffff811115610f8857610f87610e1a565b5b610f9484828501610f26565b91505092915050565b610fa681610c64565b8114610fb157600080fd5b50565b600081359050610fc381610f9d565b92915050565b600060208284031215610fdf57610fde610e15565b5b6000610fed84828501610fb4565b91505092915050565b600081519050919050565b600082825260208201905092915050565b6000819050602082019050919050565b600073ffffffffffffffffffffffffffffffffffffffff82169050919050565b600061104d82611022565b9050919050565b61105d81611042565b82525050565b600060608301600083015161107b6000860182611054565b50602083015161108e6020860182610c6e565b50604083015184820360408601526110a68282610cdd565b9150508091505092915050565b60006110bf8383611063565b905092915050565b6000602082019050919050565b60006110df82610ff6565b6110e98185611001565b9350836020820285016110fb85611012565b8060005b85811015611137578484038952815161111885826110b3565b9450611123836110c7565b925060208a019950506001810190506110ff565b50829750879550505050505092915050565b6000602082019050818103600083015261116381846110d4565b905092915050565b61117481611042565b82525050565b600060208201905061118f600083018461116b565b92915050565b6000819050919050565b60006111ba6111b56111b084611022565b611195565b611022565b9050919050565b60006111cc8261119f565b9050919050565b60006111de826111c1565b9050919050565b6111ee816111d3565b82525050565b600060208201905061120960008301846111e5565b92915050565b61121881610c64565b82525050565b6000602082019050611233600083018461120f565b92915050565b60006060830160008301516112516000860182611054565b5060208301516112646020860182610c6e565b506040830151848203604086015261127c8282610cdd565b9150508091505092915050565b600060208201905081810360008301526112a38184611239565b905092915050565b600082825260208201905092915050565b7f4469646e27742073656e6420656e6f7567680000000000000000000000000000600082015250565b60006112f26012836112ab565b91506112fd826112bc565b602082019050919050565b60006020820190508181036000830152611321816112e5565b9050919050565b600060408201905061133d600083018561116b565b61134a602083018461120f565b9392505050565b7f4e487b7100000000000000000000000000000000000000000000000000000000600052602260045260246000fd5b6000600282049050600182168061139857607f821691505b602082108114156113ac576113ab611351565b5b50919050565b60006113bd826111c1565b9050919050565b6113cd816113b2565b82525050565b60006040820190506113e860008301856113c4565b6113f5602083018461120f565b9392505050565b7f4e487b7100000000000000000000000000000000000000000000000000000000600052601160045260246000fd5b600061143682610c64565b915061144183610c64565b9250817fffffffffffffffffffffffffffffffffffffffffffffffffffffffffffffffff048311821515161561147a576114796113fc565b5b828202905092915050565b7f4e487b7100000000000000000000000000000000000000000000000000000000600052603260045260246000fd5b7f4e487b7100000000000000000000000000000000000000000000000000000000600052601260045260246000fd5b60006114ee82610c64565b91506114f983610c64565b925082611509576115086114b4565b5b828204905092915050565b600069ffffffffffffffffffff82169050919050565b61153381611514565b811461153e57600080fd5b50565b6000815190506115508161152a565b92915050565b6000819050919050565b61156981611556565b811461157457600080fd5b50565b60008151905061158681611560565b92915050565b60008151905061159b81610f9d565b92915050565b600080600080600060a086880312156115bd576115bc610e15565b5b60006115cb88828901611541565b95505060206115dc88828901611577565b94505060406115ed8882890161158c565b93505060606115fe8882890161158c565b925050608061160f88828901611541565b9150509295509295909350565b600060ff82169050919050565b6116328161161c565b811461163d57600080fd5b50565b60008151905061164f81611629565b92915050565b60006020828403121561166b5761166a610e15565b5b600061167984828501611640565b91505092915050565b600061168d8261161c565b91506116988361161c565b9250828210156116ab576116aa6113fc565b5b828203905092915050565b60008160011c9050919050565b6000808291508390505b600185111561170d578086048111156116e9576116e86113fc565b5b60018516156116f85780820291505b8081029050611706856116b6565b94506116cd565b94509492505050565b60008261172657600190506117e2565b8161173457600090506117e2565b816001811461174a576002811461175457611783565b60019150506117e2565b60ff841115611766576117656113fc565b5b8360020a91508482111561177d5761177c6113fc565b5b506117e2565b5060208310610133831016604e8410600b84101617156117b85782820a9050838111156117b3576117b26113fc565b5b6117e2565b6117c584848460016116c3565b925090508184048111156117dc576117db6113fc565b5b81810290505b9392505050565b60006117f482610c64565b91506117ff8361161c565b925061182c7fffffffffffffffffffffffffffffffffffffffffffffffffffffffffffffffff8484611716565b90509291505056fea26469706673582212208d34200caa8dd359a9fd78b045adb0b37af584f11f3f4448cbec2c8aeb2b0ec164736f6c63430008080033",
  "devdoc": {
    "kind": "dev",
    "methods": {
      "fund(string)": {
        "details": "This implements price feeds as our library"
      }
    },
    "version": 1
  },
  "userdoc": {
    "kind": "user",
    "methods": {
      "fund(string)": {
        "notice": "This function funds this contract"
      }
    },
    "version": 1
  },
  "storageLayout": {
    "storage": [
      {
        "astId": 71,
        "contract": "contracts/FundMe.sol:FundMe",
        "label": "s_minUsd",
        "offset": 0,
        "slot": "0",
        "type": "t_uint256"
      },
      {
        "astId": 76,
        "contract": "contracts/FundMe.sol:FundMe",
        "label": "s_priceFeed",
        "offset": 0,
        "slot": "1",
        "type": "t_contract(AggregatorV3Interface)45"
      },
      {
        "astId": 80,
        "contract": "contracts/FundMe.sol:FundMe",
        "label": "s_funders",
        "offset": 0,
        "slot": "2",
        "type": "t_array(t_struct(Funder)58_storage)dyn_storage"
      },
      {
        "astId": 84,
        "contract": "contracts/FundMe.sol:FundMe",
        "label": "s_withdraws",
        "offset": 0,
        "slot": "3",
        "type": "t_array(t_struct(Withdraw)63_storage)dyn_storage"
      }
    ],
    "types": {
      "t_address": {
        "encoding": "inplace",
        "label": "address",
        "numberOfBytes": "20"
      },
      "t_array(t_struct(Funder)58_storage)dyn_storage": {
        "base": "t_struct(Funder)58_storage",
        "encoding": "dynamic_array",
        "label": "struct Funder[]",
        "numberOfBytes": "32"
      },
      "t_array(t_struct(Withdraw)63_storage)dyn_storage": {
        "base": "t_struct(Withdraw)63_storage",
        "encoding": "dynamic_array",
        "label": "struct Withdraw[]",
        "numberOfBytes": "32"
      },
      "t_contract(AggregatorV3Interface)45": {
        "encoding": "inplace",
        "label": "contract AggregatorV3Interface",
        "numberOfBytes": "20"
      },
      "t_string_storage": {
        "encoding": "bytes",
        "label": "string",
        "numberOfBytes": "32"
      },
      "t_struct(Funder)58_storage": {
        "encoding": "inplace",
        "label": "struct Funder",
        "members": [
          {
            "astId": 53,
            "contract": "contracts/FundMe.sol:FundMe",
            "label": "funderAddress",
            "offset": 0,
            "slot": "0",
            "type": "t_address"
          },
          {
            "astId": 55,
            "contract": "contracts/FundMe.sol:FundMe",
            "label": "amountFunded",
            "offset": 0,
            "slot": "1",
            "type": "t_uint256"
          },
          {
            "astId": 57,
            "contract": "contracts/FundMe.sol:FundMe",
            "label": "timeStamp",
            "offset": 0,
            "slot": "2",
            "type": "t_string_storage"
          }
        ],
        "numberOfBytes": "96"
      },
      "t_struct(Withdraw)63_storage": {
        "encoding": "inplace",
        "label": "struct Withdraw",
        "members": [
          {
            "astId": 60,
            "contract": "contracts/FundMe.sol:FundMe",
            "label": "withdrawAmount",
            "offset": 0,
            "slot": "0",
            "type": "t_uint256"
          },
          {
            "astId": 62,
            "contract": "contracts/FundMe.sol:FundMe",
            "label": "timeStamp",
            "offset": 0,
            "slot": "1",
            "type": "t_string_storage"
          }
        ],
        "numberOfBytes": "64"
      },
      "t_uint256": {
        "encoding": "inplace",
        "label": "uint256",
        "numberOfBytes": "32"
      }
    }
  }
}