{
  "address": "0xb38735D63244Ef56C86cE268537FbF747903AaAc",
  "abi": [
    {
      "inputs": [
        {
          "internalType": "address",
          "name": "priceFeedAddress",
          "type": "address"
        }
      ],
      "stateMutability": "nonpayable",
      "type": "constructor"
    },
    {
      "inputs": [],
      "name": "FundMe__NotOwner",
      "type": "error"
    },
    {
      "stateMutability": "payable",
      "type": "fallback"
    },
    {
      "inputs": [],
      "name": "fund",
      "outputs": [],
      "stateMutability": "payable",
      "type": "function"
    },
    {
      "inputs": [
        {
          "internalType": "address",
          "name": "funder",
          "type": "address"
        }
      ],
      "name": "getAddressToAmountFunded",
      "outputs": [
        {
          "internalType": "uint256",
          "name": "",
          "type": "uint256"
        }
      ],
      "stateMutability": "view",
      "type": "function"
    },
    {
      "inputs": [
        {
          "internalType": "uint256",
          "name": "index",
          "type": "uint256"
        }
      ],
      "name": "getFunder",
      "outputs": [
        {
          "internalType": "address",
          "name": "",
          "type": "address"
        }
      ],
      "stateMutability": "view",
      "type": "function"
    },
    {
      "inputs": [],
      "name": "getOwner",
      "outputs": [
        {
          "internalType": "address",
          "name": "",
          "type": "address"
        }
      ],
      "stateMutability": "view",
      "type": "function"
    },
    {
      "inputs": [],
      "name": "getPriceFeed",
      "outputs": [
        {
          "internalType": "contract AggregatorV3Interface",
          "name": "",
          "type": "address"
        }
      ],
      "stateMutability": "view",
      "type": "function"
    },
    {
      "inputs": [],
      "name": "s_minUsd",
      "outputs": [
        {
          "internalType": "uint256",
          "name": "",
          "type": "uint256"
        }
      ],
      "stateMutability": "view",
      "type": "function"
    },
    {
      "inputs": [
        {
          "internalType": "uint256",
          "name": "_minUsd",
          "type": "uint256"
        }
      ],
      "name": "setMinUsd",
      "outputs": [],
      "stateMutability": "nonpayable",
      "type": "function"
    },
    {
      "inputs": [],
      "name": "withdraw",
      "outputs": [],
      "stateMutability": "nonpayable",
      "type": "function"
    },
    {
      "stateMutability": "payable",
      "type": "receive"
    }
  ],
  "transactionHash": "0xcfa02b1c0ba86a070275f7aa28d04eef698cc505991930af415778b63b2ed4b5",
  "args": [
    "0x694AA1769357215DE4FAC081bf1f309aDC325306"
  ],
  "numDeployments": 2,
  "solcInputHash": "72287e3db92deec513d38de26e78411d",
  "bytecode": "0x60a06040526802b5e3af16b188000060005534801561001d57600080fd5b50604051610f0b380380610f0b833981810160405281019061003f9190610120565b3373ffffffffffffffffffffffffffffffffffffffff1660808173ffffffffffffffffffffffffffffffffffffffff1660601b8152505080600360006101000a81548173ffffffffffffffffffffffffffffffffffffffff021916908373ffffffffffffffffffffffffffffffffffffffff1602179055505061014d565b600080fd5b600073ffffffffffffffffffffffffffffffffffffffff82169050919050565b60006100ed826100c2565b9050919050565b6100fd816100e2565b811461010857600080fd5b50565b60008151905061011a816100f4565b92915050565b600060208284031215610136576101356100bd565b5b60006101448482850161010b565b91505092915050565b60805160601c610d8b6101806000396000818161034a015281816103cf0152818161043801526104dc0152610d8b6000f3fe60806040526004361061007f5760003560e01c80639e87a5cd1161004e5780639e87a5cd14610140578063a9026f091461016b578063b60d428814610196578063d7b4750c146101a05761008e565b80630343fb25146100985780633ccfd60b146100d5578063457aa181146100ec578063893d20e8146101155761008e565b3661008e5761008c6101dd565b005b6100966101dd565b005b3480156100a457600080fd5b506100bf60048036038101906100ba9190610742565b6102ff565b6040516100cc9190610788565b60405180910390f35b3480156100e157600080fd5b506100ea610348565b005b3480156100f857600080fd5b50610113600480360381019061010e91906107cf565b610436565b005b34801561012157600080fd5b5061012a6104d8565b604051610137919061080b565b60405180910390f35b34801561014c57600080fd5b50610155610500565b6040516101629190610885565b60405180910390f35b34801561017757600080fd5b5061018061052a565b60405161018d9190610788565b60405180910390f35b61019e6101dd565b005b3480156101ac57600080fd5b506101c760048036038101906101c291906107cf565b610530565b6040516101d4919061080b565b60405180910390f35b610214600360009054906101000a900473ffffffffffffffffffffffffffffffffffffffff1660005461057890919063ffffffff16565b341015610256576040517f08c379a000000000000000000000000000000000000000000000000000000000815260040161024d906108fd565b60405180910390fd5b6001339080600181540180825580915050600190039060005260206000200160009091909190916101000a81548173ffffffffffffffffffffffffffffffffffffffff021916908373ffffffffffffffffffffffffffffffffffffffff16021790555034600260003373ffffffffffffffffffffffffffffffffffffffff1673ffffffffffffffffffffffffffffffffffffffff16815260200190815260200160002081905550565b6000600260008373ffffffffffffffffffffffffffffffffffffffff1673ffffffffffffffffffffffffffffffffffffffff168152602001908152602001600020549050919050565b7f000000000000000000000000000000000000000000000000000000000000000073ffffffffffffffffffffffffffffffffffffffff163373ffffffffffffffffffffffffffffffffffffffff16146103cd576040517f579610db00000000000000000000000000000000000000000000000000000000815260040160405180910390fd5b7f000000000000000000000000000000000000000000000000000000000000000073ffffffffffffffffffffffffffffffffffffffff166108fc479081150290604051600060405180830381858888f19350505050158015610433573d6000803e3d6000fd5b50565b7f000000000000000000000000000000000000000000000000000000000000000073ffffffffffffffffffffffffffffffffffffffff163373ffffffffffffffffffffffffffffffffffffffff16146104bb576040517f579610db00000000000000000000000000000000000000000000000000000000815260040160405180910390fd5b670de0b6b3a7640000816104cf919061094c565b60008190555050565b60007f0000000000000000000000000000000000000000000000000000000000000000905090565b6000600360009054906101000a900473ffffffffffffffffffffffffffffffffffffffff16905090565b60005481565b600060018281548110610546576105456109a6565b5b9060005260206000200160009054906101000a900473ffffffffffffffffffffffffffffffffffffffff169050919050565b6000610583826105a9565b670de0b6b3a764000084610597919061094c565b6105a19190610a04565b905092915050565b6000808273ffffffffffffffffffffffffffffffffffffffff1663feaf968c6040518163ffffffff1660e01b815260040160a06040518083038186803b1580156105f257600080fd5b505afa158015610606573d6000803e3d6000fd5b505050506040513d601f19601f8201168201806040525081019061062a9190610ac2565b50505091505060008373ffffffffffffffffffffffffffffffffffffffff1663313ce5676040518163ffffffff1660e01b815260040160206040518083038186803b15801561067857600080fd5b505afa15801561068c573d6000803e3d6000fd5b505050506040513d601f19601f820116820180604052508101906106b09190610b76565b90508060126106bf9190610ba3565b600a6106cb9190610d0a565b826106d6919061094c565b92505050919050565b600080fd5b600073ffffffffffffffffffffffffffffffffffffffff82169050919050565b600061070f826106e4565b9050919050565b61071f81610704565b811461072a57600080fd5b50565b60008135905061073c81610716565b92915050565b600060208284031215610758576107576106df565b5b60006107668482850161072d565b91505092915050565b6000819050919050565b6107828161076f565b82525050565b600060208201905061079d6000830184610779565b92915050565b6107ac8161076f565b81146107b757600080fd5b50565b6000813590506107c9816107a3565b92915050565b6000602082840312156107e5576107e46106df565b5b60006107f3848285016107ba565b91505092915050565b61080581610704565b82525050565b600060208201905061082060008301846107fc565b92915050565b6000819050919050565b600061084b610846610841846106e4565b610826565b6106e4565b9050919050565b600061085d82610830565b9050919050565b600061086f82610852565b9050919050565b61087f81610864565b82525050565b600060208201905061089a6000830184610876565b92915050565b600082825260208201905092915050565b7f4469646e27742073656e6420656e6f7567680000000000000000000000000000600082015250565b60006108e76012836108a0565b91506108f2826108b1565b602082019050919050565b60006020820190508181036000830152610916816108da565b9050919050565b7f4e487b7100000000000000000000000000000000000000000000000000000000600052601160045260246000fd5b60006109578261076f565b91506109628361076f565b9250817fffffffffffffffffffffffffffffffffffffffffffffffffffffffffffffffff048311821515161561099b5761099a61091d565b5b828202905092915050565b7f4e487b7100000000000000000000000000000000000000000000000000000000600052603260045260246000fd5b7f4e487b7100000000000000000000000000000000000000000000000000000000600052601260045260246000fd5b6000610a0f8261076f565b9150610a1a8361076f565b925082610a2a57610a296109d5565b5b828204905092915050565b600069ffffffffffffffffffff82169050919050565b610a5481610a35565b8114610a5f57600080fd5b50565b600081519050610a7181610a4b565b92915050565b6000819050919050565b610a8a81610a77565b8114610a9557600080fd5b50565b600081519050610aa781610a81565b92915050565b600081519050610abc816107a3565b92915050565b600080600080600060a08688031215610ade57610add6106df565b5b6000610aec88828901610a62565b9550506020610afd88828901610a98565b9450506040610b0e88828901610aad565b9350506060610b1f88828901610aad565b9250506080610b3088828901610a62565b9150509295509295909350565b600060ff82169050919050565b610b5381610b3d565b8114610b5e57600080fd5b50565b600081519050610b7081610b4a565b92915050565b600060208284031215610b8c57610b8b6106df565b5b6000610b9a84828501610b61565b91505092915050565b6000610bae82610b3d565b9150610bb983610b3d565b925082821015610bcc57610bcb61091d565b5b828203905092915050565b60008160011c9050919050565b6000808291508390505b6001851115610c2e57808604811115610c0a57610c0961091d565b5b6001851615610c195780820291505b8081029050610c2785610bd7565b9450610bee565b94509492505050565b600082610c475760019050610d03565b81610c555760009050610d03565b8160018114610c6b5760028114610c7557610ca4565b6001915050610d03565b60ff841115610c8757610c8661091d565b5b8360020a915084821115610c9e57610c9d61091d565b5b50610d03565b5060208310610133831016604e8410600b8410161715610cd95782820a905083811115610cd457610cd361091d565b5b610d03565b610ce68484846001610be4565b92509050818404811115610cfd57610cfc61091d565b5b81810290505b9392505050565b6000610d158261076f565b9150610d2083610b3d565b9250610d4d7fffffffffffffffffffffffffffffffffffffffffffffffffffffffffffffffff8484610c37565b90509291505056fea2646970667358221220558d54b22841786f8500bf89ed351b18d113fd71c71090098a27b7384c4e601e64736f6c63430008080033",
  "devdoc": {
    "author": "Bhimgouda Patil",
    "details": "This implements price feeds as our library",
    "kind": "dev",
    "methods": {
      "fund()": {
        "details": "This implements price feeds as our library"
      }
    },
    "title": "A contract for crowd funding",
    "version": 1
  },
  "userdoc": {
    "kind": "user",
    "methods": {
      "fund()": {
        "notice": "This function funds this contract"
      }
    },
    "notice": "This contract is to demo a sample funding contract",
    "version": 1
  },
  "storageLayout": {
    "storage": [
      {
        "astId": 60,
        "contract": "contracts/FundMe.sol:FundMe",
        "label": "s_minUsd",
        "offset": 0,
        "slot": "0",
        "type": "t_uint256"
      },
      {
        "astId": 65,
        "contract": "contracts/FundMe.sol:FundMe",
        "label": "s_funders",
        "offset": 0,
        "slot": "1",
        "type": "t_array(t_address)dyn_storage"
      },
      {
        "astId": 69,
        "contract": "contracts/FundMe.sol:FundMe",
        "label": "s_addressToAmountFunded",
        "offset": 0,
        "slot": "2",
        "type": "t_mapping(t_address,t_uint256)"
      },
      {
        "astId": 72,
        "contract": "contracts/FundMe.sol:FundMe",
        "label": "s_priceFeed",
        "offset": 0,
        "slot": "3",
        "type": "t_contract(AggregatorV3Interface)45"
      }
    ],
    "types": {
      "t_address": {
        "encoding": "inplace",
        "label": "address",
        "numberOfBytes": "20"
      },
      "t_array(t_address)dyn_storage": {
        "base": "t_address",
        "encoding": "dynamic_array",
        "label": "address[]",
        "numberOfBytes": "32"
      },
      "t_contract(AggregatorV3Interface)45": {
        "encoding": "inplace",
        "label": "contract AggregatorV3Interface",
        "numberOfBytes": "20"
      },
      "t_mapping(t_address,t_uint256)": {
        "encoding": "mapping",
        "key": "t_address",
        "label": "mapping(address => uint256)",
        "numberOfBytes": "32",
        "value": "t_uint256"
      },
      "t_uint256": {
        "encoding": "inplace",
        "label": "uint256",
        "numberOfBytes": "32"
      }
    }
  }
}